:0400000007EF00F016
:0A0008003782DCED09F06DEF09F01E
:10080000003132334134353642373839432A3023C8
:1008100044202021212150415241444121212120C5
:100820002000212121454D455247454E4349412154
:10083000212100636F6E7461646F7220706C617946
:100840002E2E2E005069657A6173206120636F6ED1
:100850007461723A004F626A657469766F43756DB0
:10086000706C69646F0050726573696F6E65204FBC
:100870004B2E2E2E0056616C6F7220496E76616C85
:1008800069646F0073746F705F656D657267656E24
:100890006379004269656E76656E69646F206120D8
:1008A00000536F6C6F20312061203539006661691B
:1008B0006C5F696E707574004F626A657469766FFB
:1008C0003A00656E645F636F756E740046616C74A8
:1008D000616E3A0077656C636F6D650061736B00E4
:0108E0000017
:1008E200000E0D6E000E0E6E000E0F6E6DEF05F017
:1008F200000E136E000E126E21EC0AF0440E046E0E
:10090200C6EC09F0010E056E020E8CEC09F00E0E1B
:10091200F2EC09F064EF05F0B8EC06F0146E2F0E5D
:10092200146496EF04F098EF04F0BBEF04F03A0E73
:1009320014609EEF04F0A0EF04F0BBEF04F013BECE
:10094200AEEF04F0135007E1020E125CD8B0ACEF28
:1009520004F0AEEF04F0BBEF04F012500D0FD96EAD
:10096200DA6A14C0DFFF124A132A145005EC0AF0A7
:1009720064EF05F0430E1418D8A4C2EF04F0C4EFDC
:1009820004F0E3EF04F013BECFEF04F0135008E1DC
:100992001204D8A0CFEF04F0D1EF04F0E3EF04F09B
:1009A20012C005F0020E8CEC09F0200E05EC0AF0E4
:1009B20012C005F0020E8CEC09F01206D8A0130644
:1009C20064EF05F0410E1418D8A4EAEF04F0ECEF3E
:1009D20004F043EF05F012500D0FD96EDA6ADF6AA8
:1009E2000D0E016E32EC06F001C010F002C011F0E3
:1009F20011BE04EF05F0115008E11004D8A004EF75
:100A020005F006EF05F01FEF05F011BE14EF05F03B
:100A1200115007E13C0E105CD8B012EF05F014EF54
:100A220005F01FEF05F00C0EF2EC09F0C60E0A6E8F
:100A3200E3EC07F010C035F064EF05F0AD0E0A6E7E
:100A4200E3EC07F021EC0AF0750E046EC6EC09F037
:100A5200010E056E020E8CEC09F0A10E046EC6ECBE
:100A620009F0330E0C6EBB0E0B6EE00EE82EFED7B5
:100A72000B2EFCD70C2EFAD7DC0E0A6EE3EC07F035
:100A82006DEF05F0420E1418D8A44AEF05F04CEFB2
:100A920005F052EF05F0840E0A6EE3EC07F064EF06
:100AA20005F0440E1418D8A459EF05F05BEF05F0D9
:100AB20064EF05F0010E321A32B002D0899601D0ED
:100AC200898664EF05F0DC0E2C18D8B46BEF05F0C4
:100AD2006DEF05F08DEF04F0DC0E2C18D8B474EF36
:100AE20005F076EF05F079EF04F0120028EF06F03A
:100AF20071EC04F08AEC07F0B8EC06F0156E2A0EE1
:100B02001518D8A487EF05F089EF05F092EF05F0EC
:100B1200366AC60E0A6EE3EC07F08AEC07F0CCEFF9
:100B220005F0440E1518D8A499EF05F09BEF05F0D7
:100B3200A4EF05F0010E321A32B002D0899601D02C
:100B42008986CCEF05F0410E1518D8A4ABEF05F05D
:100B5200ADEF05F0BDEF05F0C20E2C18D8A4B4EF2E
:100B620005F0B6EF05F0BDEF05F0366ADC0E0A6E51
:100B7200E3EC07F028EF06F0420E1518D8A4C4EFF4
:100B820005F0C6EF05F0CCEF05F0840E0A6EE3EC3B
:100B920007F0CCEF05F03550365CD8A0D3EF05F066
:100BA200D5EF05F0F9EF05F0C60E2C18D8A4DCEF4E
:100BB20005F0DEEF05F0F9EF05F0C20E0A6EE3EC88
:100BC20007F021EC0AF0010E056E010E8CEC09F023
:100BD200550E046EC6EC09F0010E056E020E8CEC89
:100BE20009F0660E046EC6EC09F0010E05EC0AF07F
:100BF20082A2FEEF05F000EF06F016EF06F0345089
:100C0200D8A406EF06F008EF06F016EF06F0010E84
:100C1200346E3550365CD8B011EF06F013EF06F0A3
:100C22007DEF05F0362A7BEF05F082B21BEF06F06E
:100C32001DEF06F07DEF05F03404D8A423EF06F093
:100C420025EF06F07DEF05F0346A7DEF05F0DC0E4E
:100C52002C18D8B42FEF06F031EF06F079EF05F03B
:100C62001200000E086E000E076E066A3AEF06F0DA
:100C7200012A0150D96EDA6A200EDE18D8B444EF88
:100C820006F046EF06F039EF06F00150D96EDA6A47
:100C9200DF50036EF70E0326040E036453EF06F0D3
:100CA20055EF06F039EF06F00150D96EDA6A2D0ED3
:100CB200DE18D8A45FEF06F061EF06F066EF06F0EB
:100CC200010E066E012A8EEF06F00150D96EDA6A25
:100CD2002B0EDE18D8A470EF06F072EF06F08EEF3E
:100CE20006F063EF06F00A0E0702F3CF03F0F4CF2B
:100CF20004F00802F35004260150D96EDA6ADF507C
:100D0200056E0550035E000E045A300E0324076E72
:100D1200000E0420086E63EF06F00150D96EDA6A05
:100D2200DF50036ED00E0326090E03649BEF06F01C
:100D32009DEF06F074EF06F00650D8A4A3EF06F07C
:100D4200A5EF06F0B3EF06F007C003F008C004F009
:100D5200031E041E034A042A03C001F004C002F069
:100D6200B7EF06F007C001F008C002F01200036AF4
:100D7200030E0364BFEF06F0C1EF06F0C3EF06F007
:100D820027EF07F003C001F0010E026E012ACCEF3B
:100D920006F0D8900236012ECAEF06F00250FF0A82
:100DA2008A6E030EE82EFED70000046A04C001F02A
:100DB200040E0126010E026E012AE2EF06F0D8901F
:100DC2000236012EE0EF06F0025081140009D8A489
:100DD200EDEF06F0EFEF06F01BEF07F004C001F0B5
:100DE200040E0126010E026E012AFAEF06F0D890D7
:100DF2000236012EF8EF06F0025081140009D8B431
:100E020005EF07F007EF07F0EFEF06F01A0E016E9D
:100E1200F80EE82EFED7012EFCD700D00350040DA9
:100E2200F350010F0424016E01C0F6FF0800F550D3
:100E320028EF07F0042A030E046422EF07F024EFE0
:100E420007F0D7EF06F0032AB9EF06F0000E120002
:100E5200066A04BE31EF07F02FEF07F037EF07F015
:100E6200036C041ED8B0042A010E066E02BE3EEFC9
:100E720007F03CEF07F044EF07F0016C021ED8B018
:100E8200022A010E061A000E086E000E076E0350AB
:100E92000410D8B44FEF07F051EF07F079EF07F0E5
:100EA200010E056E59EF07F0D89003360436052A75
:100EB20004AE5EEF07F060EF07F055EF07F0D89051
:100EC200073608360350015C04500258D8A06CEF74
:100ED20007F06EEF07F073EF07F00350015E045066
:100EE200025A0780D89004320332052E60EF07F0D1
:100EF2000650D8B47FEF07F081EF07F085EF07F0D7
:100F0200076C081ED8B0082A07C001F008C002F01A
:100F1200120021EC0AF0010E056E010E8CEC09F0B4
:100F2200B80E046EC6EC09F00B0E056E010E8CECC9
:100F320009F035C001F0026A000E046E0A0E036E5B
:100F420029EC07F00150300F05EC0AF035C001F032
:100F5200026A000E046E0A0E036E3BEC08F00150AA
:100F6200300F05EC0AF0010E056E020E8CEC09F052
:100F7200CC0E046EC6EC09F0090E056E020E8CEC66
:100F820009F03650355C016E026AD8A00206000EE6
:100F9200046E0A0E036E29EC07F00150300F05ECC7
:100FA2000AF03650355C016E026AD8A00206000EC5
:100FB200046E0A0E036E3BEC08F00150300F05EC94
:100FC2000AF012000AC02CF0D40E0A18D8A4ECEFD2
:100FD20007F0EEEF07F0F0EF07F03AEF08F0DC0E63
:100FE2000A18D8A4F7EF07F0F9EF07F0FBEF07F0C4
:100FF2003AEF08F0AD0E0A18D8A402EF08F004EF99
:1010020008F006EF08F03AEF08F0C60E0A18D8A466
:101012000DEF08F00FEF08F011EF08F03AEF08F0CB
:10102200C20E0A18D8A418EF08F01AEF08F01CEF45
:1010320008F03AEF08F0840E0A18D8A423EF08F05B
:1010420025EF08F03AEF08F021EC0AF0010E056EE8
:10105200010E8CEC09F0110E046EC6EC09F0010EC3
:10106200056E020E8CEC09F0220E046EC6EC09F03D
:1010720003001200066A02BE43EF08F041EF08F0D7
:1010820049EF08F0016C021ED8B0022A010E066E6A
:1010920004BE50EF08F04EEF08F054EF08F0036C76
:1010A200041ED8B0042A03500410D8B45BEF08F031
:1010B2005DEF08F081EF08F0010E056E65EF08F0B4
:1010C200D89003360436052A04AE6AEF08F06CEFB6
:1010D20008F061EF08F00350015C04500258D8A0F8
:1010E20075EF08F077EF08F07BEF08F00350015E30
:1010F2000450025AD89004320332052E6CEF08F0E5
:101102000650D8B487EF08F089EF08F08DEF08F0A9
:10111200016C021ED8B0022A01C001F002C002F026
:101122001200720ED36ED3A499EF08F09BEF08F071
:1011320094EF08F0820E1A6EDE0EE82EFED71A2EFB
:10114200FCD794820DEC09F03EEC0AF014EC0AF0A4
:10115200010E056E010E8CEC09F0930E046EC6ECC6
:1011620009F0000E05EC0AF0010E056E020E8CEC81
:1011720009F0330E046EC6EC09F00B0E1B6E260E40
:101182001A6E5E0EE82EFED71A2EFCD71B2EFAD749
:10119200DC0E0A6EE3EC07F077EC05F007EF00F0E7
:1011A200026E02C001F0010E0116013A8C500118C4
:1011B200EF0B01188C6E02C001F0D8900132010EC3
:1011C2000116013A01468C500118DF0B01188C6E92
:1011D20002C001F0D8900132D8900132010E0116FE
:1011E200013A014601468C500118BF0B01188C6E62
:1011F20002C001F0D8900132D8900132D890013269
:10120200010E0116013201328C5001187F0B0118B8
:101212008C6E36EC0AF012009298929A9598959AF2
:10122200959C959E340E196EF20EE82EFED7192E5D
:10123200FCD78998030ED1EC08F00D0E196EFC0E46
:10124200E82EFED7192EFCD7030ED1EC08F0420E81
:10125200E82EFED700D0030ED1EC08F0420EE82EA5
:10126200FED700D0020ED1EC08F0420EE82EFED7D7
:1012720000D0280EF2EC09F00C0EF2EC09F0060E8A
:10128200F2EC09F021EC0AF0A9EC09F01200066E6A
:10129200070E06160638E842F80B4009F2EC09F090
:1012A200000E086E000E076E05500724D96EDA6A2A
:1012B200DF5005EC0AF0074A082A08BE6AEF09F077
:1012C200085009E1080E075CD8A06AEF09F06CEF3C
:1012D20009F055EF09F012005A0EF66E140EF76E71
:1012E200000EF86E00EE1CF010EE11F00900F5CFC2
:1012F200EEFFE550E150FAE100EE2DF00A0EEE6A43
:10130200E806FDE137903792000EF86E080EF76E90
:10131200000192EF08F0066E0604D8B493EF09F0CC
:1013220095EF09F09DEF09F0BF0E0524076E086ADC
:10133200000E0822A3EF09F07F0E0524076E086A4B
:10134200000E082207C009F00950F2EC09F0120061
:1013520020EE24F010EE09F0070EDBCFE3FFE806E3
:10136200FCE2090E056E000E48EC09F020EE1CF0BE
:1013720010EE11F0070EDBCFE3FFE806FCE2110EE0
:10138200056E010E48EC09F01200CFEF09F004C01F
:10139200F6FF0800F55005EC0AF0042A04C0F6FF37
:1013A2000800F5500009D8A4D9EF09F0DBEF09F0E5
:1013B200C8EF09F0120006009EA0E2EF09F0E4EF88
:1013C20009F0F0EF09F09E900B0ECF6EDC0ECE6EA0
:1013D200010E321A32B002D0899201D0898237923C
:1013E2001100046E899804380F0BD1EC08F00450F8
:1013F2000F0BD1EC08F0060E036E300EE82EFED76E
:10140200032EFCD700D01200036E898803380F0B1D
:10141200D1EC08F003500F0BD1EC08F0210EE82EAE
:10142200FED70000120092928992310ECD6E190EF3
:10143200CF6E480ECE6E9E909D80F28CF28E120080
:10144200010EF2EC09F0060E056E300EE82EFED704
:10145200052EFCD700D01200001F151F111F00001F
:09146200000A0A00110E0000D47A
:10146C00898A00D0899A420EE82EFED700D012004D
:0A147C00F00E936E0F0E8A6E120040
:020000040020DA
:08000000FFFFFFFFFFFFFFFF00
:020000040030CA
:0E00000000081E1EFF8181FF0FC00FE00F40A1
:00000001FF
