:0400000007EF00F016
:100008005682CCED06F04EEF09F0000E00019C6F11
:10001800000E9D6F000E9E6F36EF01F0000EA36F6D
:10002800000EA26FA7EC0AF0520E00018B6F7F0E34
:100038008C6FF1EC09F0010E00018C6F020ED2EC0E
:1000480009F00E0E29EC0AF029EF01F0B9EC04F0E2
:100058000001A46F2F0EA46534EF00F036EF00F016
:1000680059EF00F03A0EA4613CEF00F03EEF00F0CB
:1000780059EF00F0A3BF4CEF00F0A35107E1020EC7
:10008800A25DD8B04AEF00F04CEF00F059EF00F055
:10009800A2519C0FD96EDA6AA4C0DFFFA24BA32B32
:1000A800A45155EC0AF017EF01F0430EA419D8A497
:1000B80060EF00F062EF00F082EF00F0A3BF6DEF99
:1000C80000F0A35108E1A205D8A06DEF00F06FEF92
:1000D80000F082EF00F0A2C08CF0020ED2EC09F022
:1000E800200E55EC0AF0A2C08CF0020ED2EC09F0FA
:1000F8000001A207D8A0A30717EF01F0410EA41929
:10010800D8A489EF00F08BEF00F0F4EF00F0A251D3
:100118009C0FD96EDA6ADF6A9C0E886F32EC04F0A5
:1001280088C0A0F089C0A1F00001A1BFA4EF00F031
:10013800A15108E1A005D8A0A4EF00F0A6EF00F0B7
:10014800C2EF00F0A1BFB4EF00F0A15107E13C0EEF
:10015800A05DD8B0B2EF00F0B4EF00F0C2EF00F04D
:100168000C0E29EC0AF0DB0E0001976F7F0E986FDA
:1001780007EC03F0A0C086F017EF01F0CC0E976FE4
:100188007F0E986F07EC03F0A7EC0AF0940E0001BD
:100198008B6F7F0E8C6FF1EC09F0010E00018C6FF4
:1001A800020ED2EC09F0C00E00018B6F7F0E8C6F2F
:1001B800F1EC09F0330E00019B6FBB0E9A6FDF0E56
:1001C800E82EFED79A2FFCD79B2FFAD700D0FB0E2C
:1001D8000001976F7F0E986F07EC03F036EF01F080
:1001E800420EA419D8A4FBEF00F0FDEF00F005EFD4
:1001F80001F0A30E976F7F0E986F07EC03F017EFCF
:1002080001F0440EA419D8A40CEF01F00EEF01F090
:1002180017EF01F0010E831B83B102D0899601D03C
:10022800898617EF01F09EAA1CEF01F01EEF01F07E
:1002380029EF01F0F3EC0AF000019F6F9F51C1EC28
:100248000AF000019F5123EC07F0FB0E0001B919D9
:1002580009E17F0EBA19D8B434EF01F036EF01F096
:100268002AEF00F0FB0E0001B91909E17F0EBA1957
:10027800D8B441EF01F043EF01F012EF00F01200A3
:1002880036EF02F009EC00F087C091F000018651CA
:10029800A1EC03F09EAA53EF01F055EF01F060EFD7
:1002A80001F0F3EC0AF00001A56FA551C1EC0AF0CA
:1002B8000001A55123EC07F0B9EC04F00001A66F8A
:1002C8002A0EA619D8A46BEF01F06DEF01F073EFB9
:1002D80001F0DB0E976F7F0E986F07EC03F0230E8B
:1002E8000001A619D8A47BEF01F07DEF01F085EF9E
:1002F80001F0FB0E976F7F0E986F07EC03F036EF57
:1003080002F0440EA619D8A48CEF01F08EEF01F08C
:1003180097EF01F0010E831B83B102D0899601D0BB
:100328008986C5EF01F0410EA619D8A49EEF01F009
:10033800A0EF01F0B4EF01F0D70EB91907E17F0E75
:10034800BA19D8A4AAEF01F0ACEF01F0B4EF01F0AC
:10035800FB0E976F7F0E986F07EC03F036EF02F0F5
:10036800420EA619D8A4BBEF01F0BDEF01F0C5EF0E
:1003780001F0A30E976F7F0E986F07EC03F0C5EF9F
:1003880001F000018651875DD8A0CDEF01F0CFEFD5
:1003980001F000EF02F0DB0EB91907E17F0EBA1980
:1003A800D8A4D9EF01F0DBEF01F000EF02F0D70E8F
:1003B800976F7F0E986F07EC03F0A7EC0AF0010E19
:1003C80000018C6F010ED2EC09F0740E00018B6FE6
:1003D8007F0E8C6FF1EC09F0010E00018C6F020E9C
:1003E800D2EC09F0850E00018B6F7F0E8C6FF1EC5B
:1003F80009F0010E55EC0AF082A205EF02F007EFB2
:1004080002F023EF02F000018551D8A40EEF02F0AC
:1004180010EF02F023EF02F0010E856F8651875D21
:10042800D8B019EF02F01BEF02F04EEF01F0872B66
:1004380087C091F08651A1EC03F04EEF01F082B233
:1004480028EF02F02AEF02F04EEF01F000018505D7
:10045800D8A431EF02F033EF02F04EEF01F0856BD4
:100468004EEF01F0FB0E0001B91909E17F0EBA1930
:10047800D8B441EF02F043EF02F046EF01F012006A
:100488000A50D96EDA6ADECFF6FFDDCFF7FF080033
:10049800F550250AD8A453EF02F055EF02F0F5EF16
:1004A80002F00A50D96EDA6ADE2A000EDD22000E4A
:1004B8004E6E000E4D6E4DC053F04F6850680A5096
:1004C800D96EDA6ADECF0EF0DDCF0FF00EC0F6FF80
:1004D8000FC0F7FF0800F550750AD8A476EF02F0B0
:1004E80078EF02F0EDEF02F00B50D96EDA6A020EE7
:1004F800DF26DF5CD96EDA6ADECF10F0DECF11F0CE
:10050800010E0E240C6E000E0F200D6E0A50D96ECF
:10051800DA6A0CC0DEFF0DC0DDFFE1EF02F0200E4D
:10052800146E14061450600FD96EDA6A10C001F008
:1005380011C002F0000E046E0A0E036EC2EC08F041
:100548000150300FDF6E10C001F011C002F0000E34
:10055800046E0A0E036E88EC08F001C010F002C0A9
:1005680011F010501110D8B4BCEF02F0BEEF02F039
:10057800D6EF02F01450D8A4C4EF02F0C6EF02F090
:1005880095EF02F0D6EF02F01450600FD96EDA6AD8
:10059800DF500C6E0C50016E026A09C003F078EC53
:1005A80007F0142A200E1418D8A4DDEF02F0DFEFAC
:1005B80002F0C8EF02F006EF03F00EC0F6FF0FC01E
:1005C800F7FF0800F550750AD8B493EF02F0EDEF85
:1005D80002F00A50D96EDA6ADE2A000EDD2206EF32
:1005E80003F00A50D96EDA6ADECFF6FFDDCFF7FFE7
:1005F8000800F550016E026A09C003F078EC07F0B4
:10060800EDEF02F0120097C0B9F098C0BAF0000EF2
:100618004EEC08F0EB0E0001971907E17F0E9819D0
:10062800D8A419EF03F01BEF03F020EF03F0060E38
:1006380039EC05F0A0EF03F0FB0E971907E17F0EE8
:100648009819D8A42AEF03F02CEF03F032EF03F047
:10065800876B060E39EC05F0A0EF03F0CC0E971966
:1006680007E17F0E9819D8A43CEF03F03EEF03F0A2
:1006780043EF03F0060E39EC05F0A0EF03F0DB0EB4
:10068800971907E17F0E9819D8A44DEF03F04FEFA3
:1006980003F05AEF03F0876B87C091F08651A1EC05
:1006A80003F0000E39EC05F0A0EF03F0D70E971910
:1006B80007E17F0E9819D8A464EF03F066EF03F002
:1006C8006BEF03F0060E39EC05F0A0EF03F0A30E74
:1006D800971907E17F0E9819D8A475EF03F077EF03
:1006E80003F0A0EF03F0070E39EC05F0A7EC0AF0D1
:1006F800010E00018C6F010ED2EC09F01F0E0001F3
:100708008B6F7F0E8C6FF1EC09F0010E00018C6F7E
:10071800020ED2EC09F0300E00018B6F7F0E8C6F49
:10072800F1EC09F0000E0001896F000E886FEAEC09
:100738000AF00300A0EF03F012000001966FA7EC87
:100748000AF0010E00018C6F010ED2EC09F0E10EE7
:1007580000018B6F7F0E8C6FF1EC09F00B0E00011E
:100768008C6F010ED2EC09F096C088F00001896BFD
:10077800000E8B6F0A0E8A6F12EC06F0000188518A
:10078800300F55EC0AF096C088F00001896B000E16
:100798008B6F0A0E8A6F74EC06F000018851300FD7
:1007A80055EC0AF000019151965D886F896BD8A0CD
:1007B8008907000E8B6F0A0E8A6F74EC06F0000131
:1007C8008851300F926F9151965D886F896BD8A0D0
:1007D8008907000E8B6F0A0E8A6F12EC06F0000173
:1007E8008851300F936F91C088F0896B000E8B6F22
:1007F8000A0E8A6F74EC06F000018851946F91C05C
:1008080088F0896B000E8B6F0A0E8A6F12EC06F067
:1008180000018851956F010E8C6F020ED2EC09F021
:10082800F30E00018B6F7F0E8C6FF1EC09F0090E4F
:1008380000018C6F020ED2EC09F00001935155ECC7
:100848000AF00001925155EC0AF0000194514EEC67
:1008580008F00001955139EC05F01200000E000176
:100868008F6F000E8E6F8D6B3BEF04F0882B8851D5
:10087800D96EDA6A200EDE18D8B445EF04F047EFD7
:1008880004F03AEF04F08851D96EDA6ADF508A6FC3
:10089800F70E8A27040E8A6554EF04F056EF04F029
:1008A8003AEF04F08851D96EDA6A2D0EDE18D8A412
:1008B80060EF04F062EF04F067EF04F0010E8D6F53
:1008C800882B8FEF04F08851D96EDA6A2B0EDE1868
:1008D800D8A471EF04F073EF04F08FEF04F064EF25
:1008E80004F00A0E8E03F3CF8AF0F4CF8BF08F0357
:1008F800F3508B278851D96EDA6ADF508C6F8C5190
:100908008A5F000E8B5B300E8A258E6F000E8B215E
:100918008F6F64EF04F08851D96EDA6ADF508A6FFE
:10092800D00E8A27090E8A659CEF04F09EEF04F02A
:1009380075EF04F08D51D8A4A4EF04F0A6EF04F0ED
:10094800B4EF04F08EC08AF08FC08BF08A1F8B1F23
:100958008A4B8B2B8AC088F08BC089F0B8EF04F0E3
:100968008EC088F08FC089F0120000018A6B030ED8
:100978008A65C1EF04F0C3EF04F0C5EF04F037EF68
:1009880005F08AC088F0010E896F882BCEEF04F03D
:10099800D8908937882FCCEF04F000018951FF0ADD
:1009A8008A6E030EE82EFED7000000018B6B8BC009
:1009B80088F0040E8827010E896F882BE6EF04F073
:1009C800D8908937882FE4EF04F000018951811409
:1009D8000009D8A4F2EF04F0F4EF04F02BEF05F0CF
:1009E8008BC088F0040E8827010E896F882BFFEFD3
:1009F80004F0D8908937882FFDEF04F00001895161
:100A080081140009D8B40BEF05F00DEF05F0F4EFF1
:100A180004F01A0E0001886FF80EE82EFED7882F12
:100A2800FCD7000000018A51040DFB0EF324886FE7
:100A38007E0EF420896F8B518827000E892388C089
:100A4800F6FF89C0F7FF0800F55038EF05F08B2B4B
:100A5800030E8B6532EF05F034EF05F0DBEF04F0A1
:100A68008A2BBBEF04F0000E12000001886F000112
:100A78008851D8A442EF05F044EF05F049EF05F09E
:100A88008D808D928D84AAEF05F08805D8A44FEF4C
:100A980005F051EF05F056EF05F08D908D928D849D
:100AA800AAEF05F0020E8819D8A45DEF05F05FEFF4
:100AB80005F064EF05F08D908D828D84AAEF05F026
:100AC800030E8819D8A46BEF05F06DEF05F072EFEF
:100AD80005F08D908D828D94AAEF05F0040E88198B
:100AE800D8A479EF05F07BEF05F080EF05F08D8055
:100AF8008D828D94AAEF05F0050E8819D8A487EF8A
:100B080005F089EF05F08EEF05F08D808D828D84DC
:100B1800AAEF05F0060E8819D8A495EF05F097EF0F
:100B280005F09CEF05F08D908D928D94AAEF05F05D
:100B3800070E8819D8A4A3EF05F0A5EF05F0AAEFD2
:100B480005F08D808D928D94AAEF05F01200720E3B
:100B5800D36ED3A4B2EF05F0B4EF05F0ADEF05F016
:100B6800820E0001A76FDD0EE82EFED7A72FFCD757
:100B780000D0948292968996CDEC07F01DEC0BF08C
:100B88009AEC0AF00DEC0BF0E1EC0AF0FCEC0AF040
:100B9800F4EC08F0330E0001A86FBB0EA76FDF0E50
:100BA800E82EFED7A72FFCD7A82FFAD700D0A7EC9E
:100BB8000AF0010E00018C6F010ED2EC09F0B20EA2
:100BC80000018B6F7F0E8C6FF1EC09F0000E55EC75
:100BD8000AF0010E00018C6F020ED2EC09F0410EF2
:100BE80000018B6F7F0E8C6FF1EC09F0330E000162
:100BF800A86FBB0EA76FDF0EE82EFED7A72FFCD776
:100C0800A82FFAD700D0FB0E0001976F7F0E986FC0
:100C180007EC03F044EC01F007EF00F000018D6BE6
:100C28008BBF1BEF06F019EF06F021EF06F08A6D77
:100C38008B1FD8B08B2B010E8D6F89BF28EF06F064
:100C480026EF06F02EEF06F0886D891FD8B0892BA5
:100C5800010E8D1B000E8F6F000E8E6F8A518B1147
:100C6800D8B439EF06F03BEF06F063EF06F0010E5B
:100C78008C6F43EF06F0D8908A378B378C2B8BAF6D
:100C880048EF06F04AEF06F03FEF06F0D8908E37AF
:100C98008F378A51885D8B518959D8A056EF06F055
:100CA80058EF06F05DEF06F08A51885F8B51895B3B
:100CB8008E81D8908B338A338C2F4AEF06F08D5172
:100CC800D8B469EF06F06BEF06F06FEF06F08E6DA3
:100CD8008F1FD8B08F2B8EC088F08FC089F012007C
:100CE80000018D6B89BF7DEF06F07BEF06F083EF87
:100CF80006F0886D891FD8B0892B010E8D6F8BBFC8
:100D08008AEF06F088EF06F08EEF06F08A6D8B1FEB
:100D1800D8B08B2B8A518B11D8B495EF06F097EF8A
:100D280006F0BBEF06F0010E8C6F9FEF06F0D8902F
:100D38008A378B378C2B8BAFA4EF06F0A6EF06F023
:100D48009BEF06F08A51885D8B518959D8A0AFEF87
:100D580006F0B1EF06F0B5EF06F08A51885F8B51C7
:100D6800895BD8908B338A338C2FA6EF06F08D5190
:100D7800D8B4C1EF06F0C3EF06F0C7EF06F0886DF0
:100D8800891FD8B0892B88C088F089C089F01200E3
:100D98000600E1CF2FF0E2CF30F0D9CF31F0DACF33
:100DA80032F0F6CF33F0F7CF34F0F8CF35F0F5CF97
:100DB80036F09EA0E2EF06F0E4EF06F011EF07F040
:100DC8009E900B0ECF6EDC0ECE6E010E511A51B0F6
:100DD80002D0899201D08982552A010E5564F7EF15
:100DE80006F0F9EF06F011EF07F067EC0AF001C022
:100DF8004BF002C04CF04BC003F04CC004F071EC57
:100E080009F04BC02CF04CC02DF0370E2E6EB4EC10
:100E18000AF0370E026E40EC0AF036C0F5FF35C016
:100E2800F8FF34C0F7FF33C0F6FF32C0DAFF31C035
:100E3800D9FF30C0E2FF2FC0E1FF56921100000138
:100E4800996F53EF07F0A30E976F7F0E986F07EC1B
:100E580003F077EF07F0000E896F010E886FEAEC58
:100E68000AF077EF07F0000E896F000E886FEAEC42
:100E78000AF077EF07F0DB0EB91907E17F0EBA1910
:100E8800D8A449EF07F04BEF07F077EF07F0DB0E38
:100E9800976F7F0E986F07EC03F077EF07F000016C
:100EA8009951410AD8B437EF07F0040AD8B42FEFA4
:100EB80007F0150AD8B427EF07F0020AD8B43FEFB5
:100EC80007F0330AD8B437EF07F0040AD8B42FEF85
:100ED80007F0150AD8B427EF07F0020AD8B43FEF95
:100EE80007F077EF07F012000350D8B47EEF07F051
:100EF80080EF07F088EF07F00350D8A486EF07F0DB
:100F080088EF07F08DEF07F0015022EC0BF0CCEFE3
:100F180007F00350D96EDA6A090ED926DE50DE10C2
:100F2800D8B499EF07F09BEF07F0B4EF07F0035040
:100F3800D96EDA6A090ED9260350E16EE26A020E0A
:100F4800E126DE50E65CE650800A086EDE50800A34
:100F58000858D8B0B2EF07F0B4EF07F0CCEF07F0BD
:100F68000350D96EDA6A020ED926DF50046E035098
:100F7800D96EDA6ADF500424D96EDA6A01C0DFFF5D
:100F88000350D96EDA6A020ED926DE2A000EDD2257
:100F980012009298929A9598959A959C959E340EDF
:100FA8000001A06FF10EE82EFED7A02FFCD700D0CD
:100FB8008998030E10EC08F00D0E0001A06FFB0ECF
:100FC800E82EFED7A02FFCD700D0030E10EC08F0B7
:100FD800420EE82EFED700D0030E10EC08F0420EA9
:100FE800E82EFED700D0020E10EC08F0420EE82ED4
:100FF800FED700D0280E29EC0AF00C0E29EC0AF0D6
:10100800060E29EC0AF0A7EC0AF0B3EC09F079EC2B
:101018000AF08AEC0AF012000001896F89C088F092
:10102800010E00018817883B8C508819EF0B88192E
:101038008C6E89C088F0D8908833010E8817883B59
:1010480088478C508819DF0B88198C6E89C088F006
:10105800D8908833D8908833010E8817883B884702
:1010680088478C508819BF0B88198C6E89C088F006
:10107800D8908833D8908833D8908833010E881751
:10108800883388338C5088197F0B88198C6E05EC4F
:101098000BF012000001896F89C088F00001D89018
:1010A8008833010E88178C508819FE0B88198C6EAE
:1010B80089C088F0D8908833D8908833010E881773
:1010C80088478C508819FD0B88198C6E89C088F068
:1010D800D8908833D8908833D8908833010E8817F1
:1010E800884788478C508819FB0B88198C6E89C0F3
:1010F80088F0010E88178847884788478C508819D8
:10110800F70B88198C6E1200000E066E000E056E25
:1011180003500410D8B493EF08F095EF08F0BDEF32
:1011280008F0010E076E9DEF08F0D89003360436DC
:10113800072A04AEA2EF08F0A4EF08F099EF08F030
:10114800D890053606360350015C04500258D8A0E2
:10115800B0EF08F0B2EF08F0B7EF08F00350015E07
:101168000450025A0580D89004320332072EA4EFA7
:1011780008F005C001F006C002F012000350041088
:10118800D8B4C9EF08F0CBEF08F0EFEF08F0010E84
:10119800056ED3EF08F0D89003360436052A04AE5E
:1011A800D8EF08F0DAEF08F0CFEF08F00350015C51
:1011B80004500258D8A0E3EF08F0E5EF08F0E9EF93
:1011C80008F00350015E0450025AD89004320332EA
:1011D800052EDAEF08F001C001F002C002F012009B
:1011E800D0A2F9EF08F0FBEF08F00CEF09F0A7EC3C
:1011F8000AF0010E00018C6F010ED2EC09F0630EAB
:1012080000018B6F7F0E8C6FF1EC09F022EF09F073
:10121800D0A811EF09F013EF09F022EF09F0A7ECBD
:101228000AF0010E00018C6F010ED2EC09F0630E7A
:1012380000018B6F7F0E8C6FF1EC09F0D092D09883
:10124800120000018D6F070E00018D178D39E842DD
:10125800F80B400929EC0AF0000E00018F6F000E10
:101268008E6F8C518E25D96EDA6ADF5055EC0AF0F4
:1012780000018E4B8F2B8FBF4BEF09F08F5109E187
:10128800080E8E5DD8A04BEF09F04DEF09F035EF51
:1012980009F01200B00EF66E150EF76E000EF86E1D
:1012A80000EEA9F010EE12F00900F5CFEEFFE550C0
:1012B800E150FAE100EE60F0280EEE6AE806FDE182
:1012C80000EE4DF0090EEE6AE806FDE156905692E2
:1012D800000EF86E0001ABEF05F00304020E04588F
:1012E800D8A079EF09F07BEF09F08BEF09F05404EF
:1012F800D8A481EF09F083EF09F08BEF09F0000E15
:10130800026E010E016E15EC0BF091EF09F0000E64
:10131800026E000E016E15EC0BF0120016C019F0EB
:1013280017C01AF0A0EF09F015C009F0190E0A6EDF
:1013380018C00BF044EC02F019C0F6FF1AC0F7FF12
:101348000800F5500009D8A4ACEF09F0AEEF09F099
:1013580098EF09F0000E166E000E156E120020EEC2
:10136800B1F010EE90F0070EDBCFE3FFE806FCE2E9
:10137800900E00018C6F000E25EC09F020EEA9F00C
:1013880010EE98F0070EDBCFE3FFE806FCE2980EBC
:1013980000018C6F010E25EC09F0120000018D6F21
:1013A80000018D05D8B4DBEF09F0DDEF09F0E5EFBA
:1013B80009F0BF0E8C258E6F8F6B000E8F23EBEF1D
:1013C80009F07F0E8C258E6F8F6B000E8F238EC0D9
:1013D80090F0905129EC0AF01200FEEF09F08BC052
:1013E800F6FF8CC0F7FF0800F55055EC0AF0000135
:1013F8008B4B8C2B8BC0F6FF8CC0F7FF0800F55089
:101408000009D8A40AEF0AF00CEF0AF0F3EF09F08C
:1014180012001E0E206E1BC021F0000E246E000E5E
:10142800236E000E2B6E000E2A6E210E156E1CC048
:1014380016F01DC017F0200E186E92EC09F01B5024
:101448002324D96EDA6ADF6A120000018B6F89984B
:1014580000018B390F0B10EC08F000018B510F0BBA
:1014680010EC08F0060E00018A6F300EE82EFED749
:101478008A2FFCD70000120049EF0AF00250D96EFB
:10148800DA6ADF50CDEC0AF0022A0250D96EDA6A25
:10149800DF50D8A452EF0AF054EF0AF042EF0AF0F6
:1014A800120000018A6F898800018A390F0B10EC3D
:1014B80008F000018A510F0B10EC08F0210EE82EFD
:1014C800FED700001200C282C2B26DEF0AF06FEFC1
:1014D8000AF068EF0AF0C450046E036AC35003248C
:1014E800016E000E0420026E12009590959295945C
:1014F8009596340E00018A6FF10EE82EFED78A2FDA
:10150800FCD700D0000E4EEC08F012009690969290
:101518009694060E39EC05F0340E0001896FF10E31
:10152800E82EFED7892FFCD700D01200929289921C
:10153800310ECD6E190ECF6E480ECE6E9E909D80E8
:10154800F28CF28E1200010E29EC0AF0060E000150
:101558008C6F300EE82EFED78C2FFCD700001200BF
:101568002EC01BF00B0E1C6E7F0E1D6E2CC01EF0C5
:101578002DC01FF00DEC0AF012000001886FACA21C
:10158800C8EF0AF0CAEF0AF0C3EF0AF088C0ADFF4F
:101598001200016EACA2D3EF0AF0D5EF0AF0CEEF3D
:1015A8000AF001C0ADFF1200001F151F111F000037
:1015B800000A0A00110E0000EB7F9490000E000153
:1015C800896F000E886FEAEC0AF0120088C054F0A8
:1015D800000188B102D08B9001D08B8012009EAAA6
:1015E800F8EF0AF0FAEF0AF0F3EF0AF0AE50120043
:1015F8000C0EAF6EAC94AB8EAC8AAB88949C948E78
:101608001200898A00D0899A420EE82EFED700D0AF
:10161800120092800E0EC16EB60EC06E010EC26E22
:10162800120001C054F001B002D08B9001D08B8021
:0E1638001200F00E936E0F0E8A6E120012005A
:107EFA00003132334134353642373839432A302358
:107F0A004456616C6F722064656C204144433A2088
:107F1A0025750D0A0020202121215041524144415A
:107F2A00212121202000212121454D455247454E3E
:107F3A0043494121212100636F6E7461646F72208D
:107F4A00706C61792E2E2E005069657A61732061FA
:107F5A0020636F6E7461723A0046616C6C612064D2
:107F6A006520656E6572676961004F626A6574694A
:107F7A00766F43756D706C69646F005072657369D2
:107F8A006F6E65204F4B2E2E2E0056616C6F72203D
:107F9A00496E76616C69646F0073746F705F656DAA
:107FAA00657267656E6379004269656E76656E69AA
:107FBA00646F20612000536F6C6F2031206120357F
:107FCA0039006661696C5F696E70757400656E640C
:107FDA005F636F756E74004F626A657469766F3A93
:107FEA000077656C636F6D650046616C74616E3A0B
:067FFA000061736B000042
:020000040020DA
:08000000FFFFFFFFFFFFFFFF00
:020000040030CA
:0E00000000081E1EFF8181FF0FC00FE00F40A1
:00000001FF
